:4000000000100020110000003D0E00003D0E000008B500F02DFFC04638B5204C23688022D20213432360182001F018F822681C4B134023601B4A1C4B1A6010221B4B1A607F
:4000400010321B4B1A600F3A1A4B1A601F321A4B1A600132194B1A6082221206184B1A6000252560174A184B1A60184A184B1A60184A194B1A60194A194B1A60194A1A4BEC
:400080001A601A4A1A4B1A6009201A4900F08CFF092000F073FF184B1D6038BD00010B40FFFFFBFF0600008004010B40080202401C02024020020240340202403C020240FA
:4000C00008010B400E0000800000024017000080400002401900008080000240BF5D0080040002403F06008044000240DB0500C0840002406D1200000C020B4038B572B6E8
:400100000122474B1A70002410E0464863001A195200821891881B195B001A5AC31858880004104300F006FF0134E4B2012CECD9002412E03B4DA3001A195200AA189189DA
:40014000D08900040843131C128A598A09041143802200F0F5FE0134E4B2002CEAD03149081C1830383100F0CBFEA02212012E4B1A8001222D4B1A70C02189032C4B196020
:40018000EE2109022B4B1960EE212B4B19602B492B4B1960802189042A4B196080210905294B196099231B0428490B6028490B6028490B60284B1A600132284B1A60284B2E
:4001C00019780A431A70274802783C218A4328390A430270197816220A431A70A122224B1A60224A224B1A608022224B1A60763A214B1A60214A224B1A600822214B1A6046
:40020000D8221201204B1A600322204B1A6021321F4B1A60FFF700FF00F0A6FE38BDC0461C700F40CC3F000000600F4002600F40000001400C000140100001400400990045
:4002400000500F4004500F4008500F4010500F4020500F4030500F402000004000800F4000700F4001700F4000000440021043000800044018010440000204403300DB0014
:40028000080204401802044008030440000404400804044010B5064C2378002B07D1054B002B02D0044800E000BF0123237010BD4801002000000000303E000008B5084B53
:4002C000002B03D00748084900E000BF07480368002B00D108BD064B002BFBD09847F9E700000000303E00004C010020C800002000000000024A1368013313607047C04652
:40030000B801002008B50122024B1A70022001F0BDFB08BD98010020F0B5474680B4002001F028FB0A2000F077FE012001F022FB002402E00134C82C5BDC01F027FB0128EA
:40034000F8D0002402E00134C82C54DC01F01EFB0028F8D0002402E00134C82C4DDC01F015FB0128F8D0002580273F02002616E00134C82C01D142E0002401F007FB00288D
:40038000F6D0002402E00134C82C3ADC01F0FEFA0128F8D0372C00DD3D437F080136102EEAD10023984680273F02002618E00134C82C01D127E0002401F0E8FA0028F6D0F3
:4003C000002402E00134C82C1FDC01F0DFFA0128F8D0372C02DD43463B4398467F080136102EE8D10B4B1D800B4B42461A8000200CE001200AE0012008E0012006E0012089
:4004000004E0012002E0012000E0012004BC9046F0BDC046A0010020B201002010B5041C01F042F97720002100F0FEFF201C01F0ADF87720012101F08FF9012001F0F2F820
:40044000041C01F05DF8201C10BDC04638B5051CFFF7E4FF041C681CFFF7E0FF2404240A204300B238BDC04638B5051CFFF7D6FF041C681CFFF7D2FF2404240A204380B212
:4004800038BDC04638B5051C0C1C01F00DF97720002100F0C9FF281C01F078F8201C01F075F801F02DF838BD10B5F4202E21FFF7E9FF062000F0B0FDF620FFF7C7FF0D4B67
:4004C0001C880D4B1B88C01A6043C417640C2418E4130A4B0020185EC002094B0021595E091901F015FF24180834E017000F0019001110BDA40100209E010020BE0100208A
:400500009A010020F8B5051C0C1E012C11D0012902DC002905D00AE0022904D0032904D005E0062606E00F2604E01B2602E0202600E00926A1013431F420FFF7A3FF301C84
:4005400000F06AFDF620FFF769FF061CF720FFF765FF071CF820FFF761FF36043F02F7193F180822121B3E1CD6402D01294BEA18294B0021595E151C5543EB171B0D5D198A
:400580002D136943CB175B0D5918C912234B00201B5E5A43D3175B0D9A18D2128A18204B00215B5E9B009B18A3400233D817800FC3189B101B4909888020000284466244D5
:4005C0005143C90BF01A184A22415043002803DB400001F00DFE02E001F00AFE4000C217120E121812125243104B5A43D3171B0C9B181B140E4A4243D117090C8A1812146B
:400600009B180C4A94466344DA17120FD3181B111818F8BD58F0FFFFB0010020AC0100209C010020A801002050C30000DE0B000043E3FFFFCF0E000008B5AA20FFF706FF39
:400640001A4B1880AC20FFF701FF194B1880AE20FFF7FCFE174B1880B020FFF705FF164B1880B220FFF700FF144B1880B420FFF7FBFE134B1880B620FFF7E8FE114B188027
:40068000B820FFF7E3FE104B1880BA20FFF7DEFE0E4B1880BC20FFF7D9FE0D4B1880BE20FFF7D4FE0B4B188008BDC0469C010020AC010020AE010020A8010020A40100201C
:4006C0009E010020BC010020B0010020AA010020BE0100209A01002010B5041C01F05EF90022054B1A70201C01F076F9002001F063F901F0BBF910BD9801002038B5041CBE
:40070000081CFFF7E9FF002501F0D2F8084A1278002A09D10028F7D00A2805D00D28F3D0207001340135EFE700232370281C38BD98010020F0B55F4656464D464446F0B4E9
:4007400083B001F027FA041E00D0D1E06F48FFF7C3FF002001F012FA08E06D4B1B78002B04D0012001F00AFA0124C6E001F012FA0028F2D001F0FCF901901720002101F04B
:40078000EDF996208000FFF7A7FF614B1B78002BFBD000250BE001F0FDF99620C000FFF79BFF5B4B1B78002BFBD00135EDB2052DF1D1012600250023994612E001F0EAF943
:4007C000002802D14B46334399467600F6B29620C000FFF781FF4E4B1B78002BFBD00135EDB2042DEAD100250126002710E001F0D1F9002800D137437600B6B29620C00046
:40080000FFF76AFF424B1B78002BFBD00135EDB20C2DECD10126002500239A4612E001F0B9F9002802D1534633439A467600F6B29620C000FFF750FF354B1B78002BFBD0C8
:400840000135EDB2042DEAD10126002500239B4612E001F09FF9012802D15B4633439B467600F6B29620C000FFF736FF284B1B78002BFBD00135EDB2042DEAD10025012630
:400880000023984612E001F085F9012802D14346334398467600B6B29620C000FFF71CFF1B4B1B78002BFBD00135EDB20C2DEAD1012001F063F9174B4A461A80164B1F80E6
:4008C0000198002101F04AF9D94513D1474513D10F22131C3B404B44191C3B091340CB183F0A1740DB1913409A4506D0042404E0022402E0032400E00324201C03B03CBCBA
:4009000090469946A246AB46F0BDC046581B000098010020A2010020A601002030B5E9B062B601F0D1F901F047FA00F007FD00F0AFFF00F0D1FF01F099F8A54801F0D2F8C1
:40094000A44801F063FA012001F018F90024A24B1C70012001F0F6F8002001F0DBF8012001F0E4F89D4800F057FB09A80021F02202F00FFE9A4B1C60FFF75EFE00F0ACFF53
:40098000984800F0C7FFFA24A40058A8211CFFF7B5FE58A8211CFFF7B1FE58A8924902F030FE002804D1013001F0B4F8052415E0002001F0AFF8FA2000F02EFB012001F036
:4009C000A9F8FA2000F028FB002001F0A3F8FA2000F022FB012001F09DF8CFE700F07CFF824800F097FF58A8FA218900FFF786FE58A87F49112202F015FE002820D10130D6
:400A000001F088F8FA20400000F006FB002001F08DF800F061FF774800F07CFFFA24A40058A8211CFFF76AFE58A8211CFFF766FE58A871490D2202F0F5FD00281CD112E022
:400A4000002001F067F8FA256D00281C00F0E4FA012001F05FF8281C00F0DEFA013CE4B2002CBBD18AE745AC201C5EA9082202F0EDFD0023237205E045AA604B03CB03C2F3
:400A80001B7813705E4800F0C7FA00F025FF554800F040FFFA24A40058A8211CFFF72EFE58A8211CFFF72AFEC82000F0B5FA032500F012FF534800F02DFF012001F036F8C6
:400AC00003240CE0013C002C09D1012001F02EF8012001F037F8002001F01CF84EE758A83E49FFF70BFE0028ECD058A84649072202F098FD002800D02EE1FA24A40058A85B
:400B0000211CFFF7FBFD58A8211CFFF7F7FD012001F00CF8012000F0FDFF002001F012F809A83A4945AA02F03DFDFFF7BDFC041C0321FFF7E7FC051C201C0A2101F0E8FBAE
:400B4000041C281C642101F0E3FB031C01A83049221C02F027FD09A801A902F045FDFFF7DBFB002805D02B4B2B4A13802B4A138009E0294B1B881AB2002A04DA5B045B0CB0
:400B80005B42254A1380244B0020185E0A2101F0BFFB04B2214B0020185E0A2101F0B8FB03B201A81E49221C02F0FCFC09A801A902F01AFDFFF7BEFD002839D1194B1A88FA
:400BC000194B1B8801A8194902F0ECFC39E0C04605030000F502000098010020B80B0000B80100205C3E0000643E0000683E0000743E0000883E0000943E0000C03F00006B
:400C0000084C0100A43E0000CC3E0000D43E0000E03E000018FCFFFFB2010020A0010020FC3E0000A2010020A6010020143F000001A9754B0A1C13CB13C213CB13C21B88ED
:400C4000138009A801A902F0CFFC704C01A87049226802F0A7FC09A801A902F0C5FC0023236001F041F8022001F048F8002001F059F8011C002001F06BF802F0A3FA0022B7
:400C8000644B01F055FC01F035FC84B2201CFA21890001F0ADFA85B2201CFA21890001F02DFB8BB201A85C492A1C02F07BFC09A801A902F099FC09A802F0ADFC09AB9C4645
:400CC00060445649062202F05BFC00F005FE09A802F0A1FC021C48A8514902F063FC48A800F018FEFA24A40058A8211CFFF706FD58A8211CFFF702FD58A8211CFFF7FEFCC7
:400D000009A800F007FEC82000F086F900F0E4FD444800F0FFFD58A8211CFFF7EFFC58A8211CFFF7EBFC00F0D7FD09A83E493F4A02F038FC09A800F0EDFD58A8211CFFF7CC
:400D4000DDFC58A8211CFFF7D9FC002000F0EEFE012000F0F7FE95E658A83549112202F061FC00280DD1C8246400201C00F054F900F0B2FD2B4800F0CDFD201C00F04CF909
:400D800096E658A82B49052202F04CFC002815D10DE0002000F0BEFE642000F03DF9012000F0B8FE642000F037F9013C00E00A24002CEED1012000F0B9FEDFE5002000F034
:400DC000A9FE58A81C49052202F02CFC00280ED058E6002000F09EFE642000F01DF9012000F098FE642000F017F9013C00E00A24002CEED1013DEDB2002D00D058E6012092
:400E000000F094FEBAE5C0462C3F0000B8010020483F000000003040543F0000643F00006C3F00007C3F00008C3F0000803801009C3F0000B03F0000B83F0000FEE7C04684
:400E400008B5031C084A1068C318084A9A1A802A02DC054A136005E002F066FB0C2303600120404208BDC046CC000020F801002070B50F4E0F4D13E029686B68AC680022F9
:400E800002E001C901C30432A242FAD1E868002202E0002102C304328242FAD11035013E002EE9D102F046FBFFF738FDFEE7C046010000009443000008B500230AE0032B59
:400EC00003D89A000A49505800E00A4899000A4A885001332F2BF2D9FFF710F90022074B1A608022D205116801230B43136008BD000000003D0E000000000020C00000205E
:400F0000F0B50025002711E0BB00C658F3B2FF22964308E06A008A181478A419527822700135013BDBB2002BF4D10137072FEBD9F0BDC04608B50A1C002102F02AFB08BD0A
:400F400008B502F01DFB08BD064B1B68002803D080221206134301E05B005B08014A13607047C04680031A4008B50822024B1A600120FFF7E9FF08BD00031A401F231840A6
:400F80001E3B8340181C014B1860704700E100E01F2318401E3B8340181C014B1860704780E100E001BE704738B5041C0D1C1F2802D90020FFF7F6FFA400034B9C466444AA
:400FC0002068256038BDC0464000002070B5041C0E1E032E02D90020FFF7E4FF1F2C02D90020FFF7DFFF03252540ED00063500F025FFA408A400074B9C4664442368032254
:40100000AA409343AE40351C1D43256000F01AFF70BDC04600E400E010B5041C06E0084B186800F001FF074B9C46644480231B029C42F4D8024B5868604300F0F5FE10BD98
:40104000D00000200080FFFF08B5034B1B7A584300F0EAFE08BDC046D0000020F0B557464E46C0B483B0041C00F0E8FE0190E71E2D2F74D83F4B1B78DBB2A34208D33E4B90
:401080001B78DBB29A463D4B1B78DBB2994631E03B4B1B78DBB2A34208D33A4B1B78DBB29A46394B1B78DBB2994623E0374B1B78DBB2A34208D3364B1B78DBB29A46354BC4
:4010C0001B78DBB2994615E0334B1B78DBB2A34208D3324B1B78DBB29A46314B1B78DBB2994607E02F4B1B78DBB29A462E4B1B78DBB299462D4BDE5D2F2E09D92A2C07D9A5
:4011000019222B4B1A60052000F08EFE192503E0274B1D683F231D40AE4206D2234BDA5D234B1A60052000F07FFE1F4B9C4664442378DBB21F4A13601F4B52461A601F4B47
:401140004A461A600520FFF77FFFAE420AD9174BDA5D174B1A60052000F066FE02E00020FFF720FF019800F06DFE03B00CBC91469A46F0BDC0F1FF0FC1F1FF0FC2F1FF0FE1
:40118000C3F1FF0FC4F1FF0FC5F1FF0FC6F1FF0FC7F1FF0FC8F1FF0FC9F1FF0FCAF1FF0FCBF1FF0FCCF1FF0FCDF1FF0FC84200002CFF0B4028FF0B401CFF0B4020FF0B40E0
:4011C000034B1868C0231B02184000D00120704700010B4008B500F031FE044A1368C02109020B43136000F02DFE08BD00010B4010B500F023FE08490A68084B1A4080246D
:40120000E40122430A600A6813408022120213430B6000F017FE10BD00010B40FF3FFFFF70B5061C00F00AFE041CFFF7C9FF002803D0FFF7DDFF012500E000250848331CB0
:401240000340084A106808490840184310601368012D01D1FFF7BEFF201C00F0F3FD70BD0404040010020B40FBFBFBFF10B5244B1B685B0715D5234B1B685B070ED5224B87
:40128000D969042001401F4C22688A432260DA698243DA611B69002B00D098470420FFF7BFFF174B1B685B0518D5164B1B685B0510D5154BD9698022D20011401148026845
:4012C0008A430260D969114A0A40DA615B69002B00D098478020C000FFF7A2FF084B1B685B030CD5074B1B685B0304D5064B9B69002B00D098478020C002FFF791FF10BD03
:4013000010020B40E000002064010020FFFBFFFF08B50A20FFF732FE08BDC04608B500F01DF808BD08B5044A1368802109060B431360FFF7EDFF08BD0000064008B5064B82
:401340001B78002B04D1FFF7E9FF0122024B1A70FFF7E8FF08BDC0468401002010B51D4A11680C230B43136000241B4B1C601B4A1B4B1A601B4B1C4A13601C4A14601C4A56
:4013800014601C4A13601C4B1C600A20FFF700FE0A200321FFF71AFE0A201849FFF704FE174B1C60174B1C60174B1C601422FF32164B1A60164B1C60164B1C60043AFF3AF3
:4013C000154B1A70154B1C80154B1C60154B1C6010BDC04670000640000006407708008060000640070100800003064004030640100306400002064004020640511E000061
:40140000C80E0640880E0640480F0640080F0640C80F0640880F0640C0010020D0010020E0010020C801002038B52E4B1B78102B53D12D4B1B68DB0751D40D1C041C0A2037
:40144000FFF7A6FD6000FF231840002D03D12422244B1A7004E02522224B1A7001231843224B1860224A234B1A600222224B1A60204B1A680823FF331A42F9D01D4B1B687A
:401480005B0714D41B4B1B689B0713D4194B1B68DB0705D51022134B1A70012001210BE01022104B1A7080204000012104E00020002101E0022000210822FF320D4B1A60F6
:4014C00000290DD00D4A13685B005B0813601368802109060B43136002E0042000E0082038BDC046C0010020640006404002064017030000000F0640680006400000064078
:401500001D4B1B789B0634D51C4B1B689B0601D5182200E010221A4B1A601A4B1A681223FF331A42F9D0174B1B68DB0606D4154B1B68DB0705D50120012105E0002000215F
:4015400002E08020400001211222FF320D4B1A60023AFF3A084B1A7000290BD00A4A13685B005B0813601368802109060B43136000E004207047C046C001002064000640C2
:4015800068000640000F064000000640214B1B789B063CD5204B1860204B1A680823FF331A42F9D01D4B1B685B0705D56022194B1A700020002119E0184B1B689B0705D5AC
:4015C0006022144B1A70022000210FE0134B1B68DB0705D510220F4B1A700120012105E010220C4B1A708020400001210822FF320A4B1A6000290BD0094A13685B005B08A4
:4016000013601368802109060B43136000E004207047C046C001002040020640000F064000000640011C194B1B789B062BD5184B1B685B0705D4174B1A680223FF331A4219
:40164000F5D0134B1B685B070DD5134B186804220F4B1A60002902D1104B1A6015E060220A4B1A7011E00E4A0A4B1A600D4A13685B005B0813601368802109060B4313607A
:401680000120404201E0012040427047C0010020C00F0640000F06404003064068000640170300000000064010B50A20FFF770FC044B1C88A4B200221A800A20FFF75EFC9A
:4016C000201C10BDD001002010B51F4B1C6800F035F90028FBD0002000F038F91B4A13680F218B4313601A4A13685B005B081360A3060FD5002000F029F90A20FFF7A4FC0B
:40170000012000F023F900F02DF90028FBD00A20FFF79AFC002000F019F90A20FFF794FC01220C4B1A600A4A1368802109060B43136006490B680F229343013A13430B60F2
:40174000012000F003F910BD6400064010000140000006406800064010B52A4B1B789B064DD54000FF240440002903D12422254B1A7004E02522234B1A7001231C43224A1A
:40178000224B1A60FFF7A0FF214B1B68DB07FBD4204B1C601D4B1A680823FF331A42F9D01A4B1B685B0714D4184B1B689B0713D4164B1B68DB0705D51022124B1A7001203F
:4017C00001210BE010220F4B1A7080204000012104E00020002101E0022000210822FF320A4B1A6000290BD00B4A13685B005B0813601368802109060B43136000E004205C
:4018000010BDC046C001002017030000000F06406800064040020640000006407222074B1A70523A064B1A701A3A064B1A704132054B1A700022054B1A70704780000F4034
:4018400081000F4023000F4033000F4082000F4010B500F0F3FA041C0A4A117820230B43137009490A7810231A43D2B20A70074A11780B43DBB2137000F042F9201C00F02F
:40188000E1FA10BD90000F4091000F4092000F4008B5064B1B78002B04D1FFF7BFFF0122024B1A70FFF7D4FF08BDC0468C010020074B1B78DBB29A0606D5064A1078C0B219
:4018C0001E221A4202D102E0002000E00020704761000F4040000F4008B500F0AFFA064B197801220A431A701A7801218A431A7000F0A8FA08BDC04690000F40034B1B7827
:401900005B07FBD4024B18707047C04662000F4042000F4038B5084B1B78002B05D109E0FFF7ECFF0134A4B201E0051C0024285D0028F5D138BDC0468C010020024B18686B
:401940008007C00F7047C04604040440031C04490868FE2202400120184010430860704700040440024B1868012318407047C04604040440031C04490868FE2202400120E6
:40198000184010430860704700000440024B1868012318407047C0460400044008B500F04DFA044A136801218B43136000F04AFA08BDC046000005400004000C014B186093
:4019C0007047C046080105400004000C014B18607047C046140105400004000C014B18607047C0460C01054038B5041C0D1C00F025FAAC40024B1C6000F024FA38BDC0460B
:401A00000800054008B500F019FA064A116801230B43136000F016FA01201821FFF7E4FF08BDC04600000540014B18607047C0463801054008B50022084B1A600C32084B6C
:401A40001A600220FFF7F0FF0648FFF7BDFF0648FFF7C2FF0020FFF7AFFF08BD0001054024010540FFFF0000B80B000008B5064B1B78002B04D1FFF7DDFF0122024B1A7079
:401A8000FFF7C0FF08BDC0468E010020014B18607047C046300105408023014AD05070470000002010B5041C00F0C8F9044A1368C0218B43A4011C43146000F0C3F910BD1C
:401AC00010E400E080225202014B1A607047C04600E100E080225202014B1A607047C04680E100E010B5041CFFF7F4FF201CFFF7D3FF0320FFF7D6FFFFF7E4FF10BDC046B2
:401B0000034A1368802109060B4313607047C04680000240044A11687F230B40C001C0B2184310607047C0460002044004490A68BF231A4080017F3B184010430860704738
:401B40000002044004490A68DF231A404001BF3B184010430860704700020440034A13681B0C1B04184310607047C04604000240014B186880B270470400024004490A6823
:401B8000FD231A404000FB3B184010430860704700020440024B1868012318407047C0460402044008B50E200321FFF70FFA0E202349FFF7F9F90122224B1A60224B1B684B
:401BC000002B01DA214900E02149224A13680B431360214A214B1A60214A224B1A600023214A1360214A22490A6022490A6022490A688020400202430A60204A1360204A15
:401C0000136001331F4A136002211F4A11601F4908681F4A024013430B6000230DE09A001C498C4662440021116058001A4A815299001A481A4A88500133002BEFD008BD1E
:401C4000AD1D000020001A4080031A40C0021053C002005300001A408C00008004001A400000FF0718001A401C001A400400040010001A4014001A4000031A4028021A4096
:401C800038021A4018021A40000F1A4030001A40FFFFFFDF80001A40EC010020204E0000E801002008B5074B1B68002B08DB054A1368802109060B4313600A20FFF7C4F937
:401CC00008BDC04600001A4008B5064B1B78002B04D1FFF767FF0122024B1A70FFF7E2FF08BDC0468F010020034A1368802149020B4313607047C04604001A40021C83073E
:401D00000CD0074B1B680120184001D19307F8D4002804D00122024B1A6000E00020704710021A4010B5041E02D00020FFF73AF9002C07D1A400054B9C4664442068000428
:401D4000000C00E0002000B210BDC04680011A4038B5041C0D1C002802D00020FFF722F963000F4A995A691A09B20E48021C4A43002906DDA3000C495B58D80FC0184310DF
:401D800006E0A30008495B58D80FC3185B105B42D018A400044BE15800F0BAFA00B238BDEC01002010270000E8010020014B1A681A60704710021A408022D201014B1A607A
:401DC0007047C04680E100E0014B18647047C0460000002010B5041C00F030F8044A1368C0218B43A4011C43146000F02BF810BD00E400E00122014B1A60704700E100E04E
:401E00000122014B1A60704780E100E010B5041CFFF7F6FF201CFFF7D7FF0320FFF7DAFFFFF7E8FF10BDC0460230800804D0C0460138FDD1C046C046C0467047EFF3108071
:401E400072B6704780F310887047C046C046C04610B5C04B1B68002B00D09847BE4B1B68DB0702D50022BD4B1A60BD4B1B789B0628D5BC4B1B68DB0507D5BB4A1188C02399
:401E80009B000B431380012300E00023B54A1268D20706D5B44A118890239B000B4313800123002B0FD0AE4A1278D20701D5012200E00222AC49088802430A800021A84A9F
:401EC000117000E00023A64A1278920600D414E1A44A1268D20611D51022A44B1A60A04B1B78DB0701D5012300E002239E4A11880B43138010229A4B1A7029E1984A1278EA
:401F0000120720D5974A126892070AD50222974B1A60954A118888239B000B431380012311E08F4A1278D20703D525218C4A117009E024218A4A11708D4A1268002A02D00B
:401F400014398C4A1160864A1278520700D4ABE0834A1278D20749D5874A1268120727D5864A1268864909680F240C40854909686418141B082C09D8002C16D1824A1168AD
:401F8000824B0B401360012308340EE008240CE07C4A11687E48006841187E480068C0B20870116801311160013C002CF0D119E0714A1268520715D5724A11687448006842
:401FC000411874480068C0B2087011680131116011686A4A1268914203D204216E4A116000E001236D496E4A11605DE05D4A1268920726D502225D4B1A606A4A13680F2147
:402000001940136880221202134000D00123CB18654A1168CB1A13601268644B1A60524A118884239B000B431380614B1A68802149020A431A6019685E4A0A401A6001237F
:4020400032E05D4A1268D20612D424E0564A1168474A1268914211D2534A11685748006841180978C9B2564801601168013111604C4A12680F210A40082AE7D14A4A116883
:402080003B4A1268914202D140213A4A11604D494D4A116008E0484A1268520604D5424B1A68424B1A600123002B51D0364A1168364B0B4013600023444A13602D4A136096
:4020C000434B1B789B070ED5254B1B78DB0701D5092300E00A23244A11880B43138060221F4B1A7034E03B4B1B689B0601D5182200E01022284B1A602AE0194B1B78DB0639
:4021000026D4354A13685B005B0813601021144B19701D4B18683149014019601868304901401960002329490B6012490B601B49254B196023491A4B19602A492A4B1960D4
:402140002A490A4B19601368802109060B43136010BDC046880100208C0E0640880E0640C00100200C0F0640D0010020000F0640CC010020880F0640CC0F0640DC0100208A
:4021800008030640E001002060000640FFFEFFFFD40100204003064068000640ED0F0000C00F064008020640C4010020C801002004020640FFFFFEFF8C0F0640E4010020A4
:4021C00040020640F3070000800F0640C80F0640D80100206400064000000640FF5FFFFFFFFCFFFFFF0F0000400F064017030000002243088B4274D303098B425FD3030AD7
:402200008B4244D3030B8B4228D3030C8B420DD3FF22090212BA030C8B4202D31212090265D0030B8B4219D300E0090AC30B8B4201D3CB03C01A5241830B8B4201D38B03FA
:40224000C01A5241430B8B4201D34B03C01A5241030B8B4201D30B03C01A5241C30A8B4201D3CB02C01A5241830A8B4201D38B02C01A5241430A8B4201D34B02C01A5241A5
:40228000030A8B4201D30B02C01A5241CDD2C3098B4201D3CB01C01A524183098B4201D38B01C01A524143098B4201D34B01C01A524103098B4201D30B01C01A5241C308F4
:4022C0008B4201D3CB00C01A524183088B4201D38B00C01A524143088B4201D34B00C01A5241411A00D20146524110467047FFE701B5002000F0FCF802BDC0460029F7D0D4
:4023000003B5FFF775FF0EBC4243891A1847C04603460B437FD4002243088B4274D303098B425FD3030A8B4244D3030B8B4228D3030C8B420DD3FF22090212BA030C8B4257
:4023400002D31212090265D0030B8B4219D300E0090AC30B8B4201D3CB03C01A5241830B8B4201D38B03C01A5241430B8B4201D34B03C01A5241030B8B4201D30B03C01A55
:402380005241C30A8B4201D3CB02C01A5241830A8B4201D38B02C01A5241430A8B4201D34B02C01A5241030A8B4201D30B02C01A5241CDD2C3098B4201D3CB01C01A5241A5
:4023C00083098B4201D38B01C01A524143098B4201D34B01C01A524103098B4201D30B01C01A5241C3088B4201D3CB00C01A524183088B4201D38B00C01A524143088B420B
:4024000001D34B00C01A5241411A00D201465241104670475DE0CA0F00D04942031000D34042534000229C4603098B422DD3030A8B4212D3FC22890112BA030A8B420CD3C7
:40244000890192118B4208D3890192118B4204D389013AD0921100E08909C3098B4201D3CB01C01A524183098B4201D38B01C01A524143098B4201D34B01C01A524103098F
:402480008B4201D30B01C01A5241C3088B4201D3CB00C01A524183088B4201D38B00C01A5241D9D243088B4201D34B00C01A5241411A00D20146634652415B10104601D3A6
:4024C0004042002B00D54942704763465B1000D3404201B5002000F00BF802BD0029F8D003B5FFF715FF0EBC4243891A1847C0467047C04638B500220C4B041C0D1C00F0C1
:40250000D1FE002804D1201C291C00F025FE38BD064B0022201C291C00F0A4FA00F01CFE80231B069C466044F1E7C0460000E041F0B55F4656464D464446F0B4051C061C87
:40254000080387B099464F00030BCC0F92469B467F0D019467D06C4B9F4236D080205B4640031843C0006B0F1843684B83469C4600239846EE00674400934B4649461D0314
:40258000C90F5B0052462D0B5B0D894600D16EE05D498B4264D080205C4940038C4600210543ED00500F0543D20063444846FF187B1C9A46009B604002900B430F2B00D901
:4025C000ACE053489B00C3589F465B461D4300D082E00823009300239B46023300269846CBE7029B01934346022B59D1012400250026019B1C40444B00212D030A0D1205B2
:402600002D0B1543434A1B0515401D436D00E4076D082543301C291C07B03CBC90469946A246AB46F0BD2B434ED05B46002B00D185E1584600F040FE021C2823291C9B1A3A
:40264000161C5846D940083EB0400B1CB54003439B462E1C0023304F0093BF1A98468CE7514629432ED10025002202219EE75146294323D0002D00D154E1281C00F01CFEE7
:40268000031C28215046C91A1A1CC8405146083A914095400A1C05431F480021C31A85E7032B00D1C2E1012B00D06DE14446019B00251C40E4B2002300269DE70025002200
:4026C000012173E7032171E70423009300239B4601330026984650E70C230093093B98464BE7802500242D030026074B84E74B46AB46161C0193884675E7029BAB46161C91
:40270000019388466FE7C046FF07000001FCFFFFF8420000FFFF0F800DFCFFFF330C3604360C9C46331C140C1204120C53439846634653439946634663430193331C414681
:402740006343090C4B445B18994505D9802040028146019949440191190C039141460904090C1B045B1804932B0C9846331C2D04290C4B43604600934346654658435E43F2
:40278000009B4D431B0C9946AE194E448446B54203D980235B029946CC44350C2B1C0398634484460593009B36041B041B0CF3189C446046039058460504060C280C8446E1
:4027C0005043351C81466046654344434846000C8346724314195C44A24203D98022520293465D44220CAD184A461204120C24044046A41862464A43714346436046009675
:40280000464670438046100C84468844E044414505D9802149028C46009961440091019803998446614499429B415B4299460598434684461204120C1B049B1863449C4676
:40284000AB4683429B4140460A19CC44A2428941E344CC45B6415C46000C8046494276425B426418334398448C428941AB459B4149425B4219430D1C009B4544EE1876025B
:40288000E50D2E43B346049B56021E43731E9E415B46D20D324366021643DB010AD50123334076081E435B46DB071E435B465B089B465746634BFB18002B5ADD720709D032
:4028C0000F223240042A05D0321DB242B6417642B344161C5A46D20106D55A465A4B1A4080239346DB00FB18584A934234DD0124029B00251C400026554B7DE680205B468B
:402900000003034208D0054206D105432D032D0B4C46161C4E4B6FE65D4605432D032D0B4B4B69E6504600F0C7FC031C2033272B00DCA6E65546083885400022ACE6281CB2
:4029400000F0BAFC021C2032272A00DC75E6083885400026AB467DE65A46F608520716435A4601245502029A5B052D0B5B0D144042E6384DED1B382D0ADD0124029B0025F6
:402980001C400026002337E6019B5746029391E71F2D25DC304B321C9C466744BE405B46BB40371CEA407E1EB74113433B431E1C5B46EB401D1C730709D00F233340042B87
:4029C00005D0331DB342B6417642AD191E1C2B0220D50124029B00251C40002601230BE65A461E4BDB1BDA40131C202D1CD01C4A94465A466744BA40171C3E43721E96414D
:402A00001E4307230025334007D00F2300253340042BD6D16B076D022D0B0124F6081E43029B1C400023E7E50027E6E780255B4601242D031D43019B2D0323401C1C2D0BE9
:402A4000034BD9E5FF030000FFFFFFFEFE070000FF07000002FCFFFF1E040000E2FBFFFF3E040000F0B54D4644465F465646F0B40E1C111C3203520A470F1743C5001A03E6
:402A80005800DB0F9946520A4B0F83B01A43CB000193CF4B7400F60F640DB046400D984200D1E8E00123494659400B1C9E4200D1B1E0261A002E00DC1CE1002842D1131C30
:402AC00001990B4300D0E6E06B0700D18EE00F232B40042B00D189E02A1DAA42AD418023012641466D427F191B043B400E40151C002B00D183E0B64B01349C4200D116E194
:402B00003A1CB44BED081A405007640552020543120B640D002112030B0D1B056405120B1A436308AC4CF60714401C43640064083443281C211C03B03CBC90469946A24693
:402B4000AB46F0BDA24B9C42BED080231B041A43382E00DD03E11F2E00DD3FE12020831B9946131C49468B409C46019B6046F34003430198F2408840011C481E81410B43C5
:402B8000EB1A9D4280411D1CBA1A4042171A3B0200D4A8E07A02560A002E00D1CAE0301C00F08AFB031C083B1F2B00DDCBE02822291C121AD1409E400A1C9D4032439C429D
:402BC00000DDC8E01C1B671C1F2F00DDEDE01F23291C1C1B131CA540A340F9406C1EA541FA4019430D43171C00246DE78023012642461B043B401640002B00D07BE7744B51
:402C0000ED0878070543FA089C423BD012036405120B640D7EE7231A9A46002B00DCA5E0002844D06A48844200D14DE78020000402435346382B00DC1CE1019B1A43511EF4
:402C40008A41D1B200224919A94280410D1CD219404217183B0246D55D4B01349C4200D169E101205B4A6B083A4028401843D5070543570828E7131C01990B4300D111E7FB
:402C80004B4613E72B1C134351D080231B031A431203120B3EE7013E002E00D080E0691A8D429B41BA1A5B42D71A0D1C6FE7101C019B184300D107E701235B429C46E244FF
:402CC0005346002B00D002E1019BD2195919A9429B415B42D7180D1CBCE76346034300D128E1071C65466B0700D0F0E6012643461E4084E7002E00D081E0601C4005400DB0
:402D0000012800DC07E10199681A84466545B641B81A7642861B300200D4A1E08C464D1BAC458941D21B4942561A984634E700220025EFE6281C00F0BFFA2030031C083BDC
:402D40001F2B00DC33E7021C283A95402A1C00259C4200DC36E71F4FE41A1740B4E6019B1A43511E8A41D3B2002209E7002B00D001E1601C43055B0D012B00DCB0E0144B55
:402D8000984200D11EE1019BD2195919A9429B415B42D2184908D5070D435708041C93E60B4B9C4200D0D3E68EE6211C131C1F39CB40191C202F00D18EE03F231C1BA2406F
:402DC00015436A1E954100270D4300248BE7C046FF070000FFFF7FFFFFFF0F80331C101C203BD840202E79D040239B1B9A40131C019A1343591E8B4100220343C0E6002CE6
:402E000053D0C74CA04200D1B0E0802471428946240427434946382900DDCDE01F2900DD59E120243E1C611A8E408A46B04649462E1CCE405146B4468D40644646464946D1
:402E400026436C1EA541CF4035430199D71B8C464D1BAC4592415242BF1A041C984696E663466546334300D096E60026002700240025C4E61F2B61DC2020C31A9B46131C77
:402E800059468B4051469946019BCB409C464B46604603439C465B46019999406346481E814119435346DA40CDE63C1C2C435DD0F1438946002955D10199D21B8C464D1B9C
:402EC000AC4589414942571A041C98465FE69448844200D0ADE6F7E5002271E7002387E73B1C2B43002C00D0DAE0002B00D113E1131C01990B4300D1E6E54919A9429B41A5
:402F0000D2195B42D7183B0200D421E1854B0D1C1F40041CD8E5381C2843002C40D1002800D083E0101C0199084303D0171C0D1C9846C9E500260027002560E65046131C32
:402F40002038C340181C5346202B00D1C1E0402351465B1A9A40019911434A1E91410022014370E66E4CA04200D053E7171C019D041C9846A8E5002C28D13C1C2C4300D180
:402F80008AE0DB439A46002B00D082E0019BD2199C4665449D42894149425718041C59E600285BD1101C0199084300D1A4E0171C0D1C98465A4C87E53D436F1EBD41002700
:402FC000EDB242E7041C0027002518E6544CA04262D0534680245B429A46240427435346382B00DD8EE01F2B00DD9DE02024E31A9B463B1C59468B40514699462B1CCB4009
:403000009C464B46644623439C465B469D4063466C1EA541CF401D43019BBF189C4665449D4292415242BF18041C13E6101C0199084300D148E5681A844685428041BE1A36
:403040004042301A060200D447E68C464D1BAC458941D21B4942571A984635E5101C0199084334D080247807ED08FF0824032843274208D0D608264205D1C90852070A430B
:40308000101C371C9846FF00420F1743C500244C1AE5234CA042A2D1171C019D041C13E5002B35D0131C01990B4310D080247807ED08FF08240328432742E4D0D3082342F3
:4030C000E1D1C90852070A43101C1F1CDBE7144CFAE400223FE74C463E1C203CE6404946341C202932D04026761AB7403D436F1EBD4100272543A8E680270026FF03084C28
:4031000000257CE53D436F1EBD410027EDB283E7171C019D024CD7E4171C019DD4E4C046FF070000FFFF7FFF54463B1C203CE3401C1C5346202B0DD0402351465B1A9F402C
:403140003D436F1EBD410027254365E70027CDE70D1CC8E50027F3E70B0330B5134C1A0B4B00051C5B0DC90F0020A34210DD104883420EDC80200F4C40030243E41A1F2CCF
:403180000ADD0D48C31ADA40131C48424340581830BD0A4BC818FBE7281CE040084CA44663449A40131C0343EFE7C046FE0300001D0400003304000013040000FFFFFF7FCC
:4031C000EDFBFFFF38B5041E16D0C50F00D04442201C00F071F8174B1B1A0A2821DC021C211C153291400A1C0B21081AC4405B052403240B5B0D03E00025002300240022F5
:403200000021101C24030A0D1205240B14430A4A1B0514401C436400ED0764082C43211C38BD0B3884405B052403240B5B0D0022E6E7C0461E040000FFFF0F808446101C1B
:4032400062468C46191C634600E0C0461FB500F005F9002801D40021C8421FBD10B500F049F84042013010BD10B500F0F7F8002801DB002010BD012010BDC04610B500F096
:40328000EDF8002801DD002010BD012010BDC04610B500F073F8002801DC002010BD012010BDC04610B500F069F8002801DA002010BD012010BDC0461C2101231B049842E8
:4032C00001D3000C10391B0A984201D3000A08391B09984201D30009043902A2105C40187047C04604030202010101010000000000000000F0B55F464D4644465646F0B494
:403300001F035C00DB0F99461B4B0E034D00C90F8446360B6D0D8B4690463F0B640D9D420CD0154B9C4210D00123A54214D0181C3CBC90469946A246AB46F0BD311C012323
:403340000143F4D10C4B9C42EED13A430123002AEDD10123A542EAD1BE42E8D1C445E6D1CB4506D0002DE2D13043031C581E8341DDE70023DBE7C046FF070000F0B55746FF
:4033800045464E46E0B40F034E00C90F8A4632491D035C0084463F0B760D90462D0B640DDB0F8E420FD08C4239D0002E10D13843414241418946002C27D12A4325D10020D0
:4033C00000290ED108E0391C01432ED1B44226D0002C0BD09A450DD05346594201231943081C1CBC90469946A246F0BD2A43F3D09A45F1D1A642EFDC1ADA50464142484182
:40340000012341421943081CEBE74A46002AE1D058425841012241421143081CE1E7291C114302D1002EC2D0D4E702204042D8E7AF42D1D809D00020AF42D2D25046414284
:403440004841012340421843CBE7C445C4D80020C445F3D3C5E7C046FF070000F0B55F464D46444656468046F0B4061C0803000B84462C484C001F035D00C90F640D8B46FC
:4034800091463F0B6D0DDB0F844212D0854225D0002C14D161460E4370424641002D35D0002E21D058425841012143420B43181C0EE06146022031430AD1A5420ED0002D3C
:4034C00012D13A4310D15B46594201231943081C3CBC90469946A246AB46F0BD391C02201143F5D1002CD5D09B45ECD1AC42EADC05DBBC45E7D80FD00020BC45E8D25846CD
:4035000041424841414201200843E1E73A43C7D10020002EDCD1D6E7C845D4D80020C845EDD3D5E7FF070000014B18687047C046440100200E4B70B500251E1C0D4CE41A71
:40354000A410A54204D0AB00F35898470135F8E700F00EFF084B00251E1C084CE41AA410A54204D0AB00F35898470135F8E770BD7C4300007C4300007C4300008443000067
:40358000002310B5934203D0CC5CC4540133F9E710BD031C8218934202D019700133FAE7704700000EB410B59DB002A9029008610B48822488604861012040421FABC881EB
:4035C000084804CBA400006801938C8100F0B2F80023029A13701DB010BC08BC03B01847FFFFFF7F44010020021C10B51378002B01D00132FAE7CC5CD4540133002CFAD1DA
:4036000010BD02780B78002A03D0013001319A42F7D0D01A70470023C25C0133002AFBD1581E7047002330B59A420DD0013AC45CCD5CAC4202D1934202D1251C631B03E034
:403640000133002CF3D1F8E7181C30BD031C30B5002A07D00C7801335D1E013A2C700131002CF5D19A18934203D0002119700133F9E730BDF0B58E6885B0071C0C1C03923E
:403680000193B34245D390238A89DB001A423DD003250969236801985B1A029363695D43EB0F5D19029B6D1001331B189D4200D21D1C381C53050FD5291C00F01DFB061E4F
:4036C00013D0029A2169FFF75BFFA289184B134080221343A38111E02A1C00F065FB061E0CD1381C216900F0C1FA0C23402201203B60A38940421343A38117E0029B2661D3
:40370000F61826606561019EED1AA560019BB34200D2019E321C2068039900F092FA0020A3689B1BA36023689E19266005B0F0BD7FFBFFFFF0B59FB0029005938B890E1CB2
:40374000171C1B0610D50B69002B0DD1402100F0D3FA30603061002804D10C23029A01381360D0E040237361002306AD6B6120336B761033AB763C1C2378002B03D1E31BCF
:40378000049312D003E0252BF9D00134F4E7049B0298311C3A1CFFF76DFF431C00D1ACE06A69049B944663446B612378002B00D1A3E00122002352426A6002A95432521872
:4037C00001342B60EB60AB601370AB654F4F2178381C052200F02AFA002808D0C01B01278740381C2B68013418432860EEE72B68DA0604D55322202102A8121811701A0744
:4038000004D553222B2102A81218117022782A2A01D0099B0EE0059A111D12680591002A01DB099204E05242EA60022213432B60013409E02278303A092A04D80A214B4319
:4038400001349B18F6E7099323782E2B18D163782A2B09D1059B02341A1D1B680592002B0DDA01235B420AE0002301342278303A092A04D80A214B4301349B18F6E7079399
:40388000234F2178381C032200F0D0F9002807D0C01B40278740381C2B6801341843286021781C480622671C297600F0BFF9002812D0194B002B06D10722059B073393438C
:4038C0000833059314E005AB00930298291C321C124B00E000BF07E005AB00930298291C321C0E4B00F08AF80390039B013304D06B69039A9B186B613DE7B3890B985B06E6
:4039000001D5012040421FB0F0BDC0463A43000040430000444300000000000075360000F7B5171C01930A698B6800900C1C934200DA131C221C3B6043321278002A01D018
:4039400001333B6023689B0602D53B6802333B60062523681D401ED0231C43331B785A1E9341226892061CD53020E1184031C870211C5A1C45310978A21840320233D1701C
:403980000FE0221C0123009801991932089EB047431C0ED00135E3683A689B1A9D42F0DBDAE7221C009801994332089DA847431C02D10120404220E006232068E1683A6832
:4039C00003400025042B03D18D1AEB43DB171D40A3682269934201DD9B1AED180027AF420ADA221C0123009801991A32089EB047431CDED00137F2E70020FEBDF0B58BB0E3
:403A000006920A1C43320793059004920A7E0C1C109B6E2A00D1A8E011D8632A22D009D8002A00D1B2E0582A00D0C2E045310A707C4A4FE0642A1DD0692A1BD0B9E0732A64
:403A400000D1A7E009D86F2A29D0702A00D0B0E0202209680A43226037E0752A1FD0782A33D0A6E00E1C1A684236111D196013683370A1E021681A68080606D4490604D5AA
:403A8000111D19600023D55E02E0111D19601568002D3BDA2D23049A6D42137036E021681A68080606D4490604D51568111D1960ADB202E0111D196015685A4B227E03930C
:403AC0000A276F2A1DD108271BE0221C782145321170554A19680392081D226818600D68100602D4500600D5ADB2D30702D520231A4322601027002D03D1202322689A4399
:403B00002260231C002243331A7002E00A27454B03936368A360002B03DB0422216891432160002D02D1049E002B0ED0049E281C391CFEF7E3FB039B013E5B5C281C33705A
:403B4000391CFEF755FB051EF1D1082F09D12368DB0706D563682269934202DC3023013E3370049B9B1B23612BE009681A68080607D4490605D5111D19601368A28A1A805E
:403B800004E0111D1960136862691A600023049E236116E01A68111D196016680021301C626800F043F8002801D0801B6060636803E0261C42363270012323610023049AAB
:403BC0001370079B05980093211C069B09AAFFF7A7FE431C02D10120404221E0236905980699321C079DA847431CF4D023689B0705D4099BE068984212DA181C10E00025A1
:403C0000E368099A9B1A9D42F3DA221C0123059806991932079EB047431CDCD00135EFE70BB0F0BD4B4300005C430000C9B28218904204D003788B4202D00130F8E70020FF
:403C4000704710B5814208D28B18984205D29B1A013A09D3995C8154FAE70023934203D0CC5CC4540133F9E710BD000030B500293ED004390B68002B00DAC9181D4A1368E0
:403C8000141C002B02D14B60116031E099420DD208680A189A4203D11368C3180B6053684B60216024E08A4203D8131C5A68002AF9D11D685C198C420BD10968691858186F
:403CC0001960904214D110685268091819605A600EE08C4202D90C23036009E008680C18944203D114685268001908604A60596030BDC04694010020032370B5CC1C9C43EA
:403D00000834051C0C2C01D20C2405E0002C03DA0C2300202B6042E08C42F9D3204A1368101C191C002913D00A68121B0DD40B2A02D90A608B181FE08B4202D15A680260B5
:403D40001BE04A685A600B1C17E00B1C4968E9E7144E3368002B03D1281C00F04BF83060281C211C00F046F8031C421CD0D00322C61C964386420AD11C60181C07210B30B1
:403D80001A1D8843821A0AD05142995007E0311A281C00F02FF8431CBAD0331CECE770BD9401002090010020F8B5061C0C1C151C002904D1111CFFF79FFF041C18E0002ABB
:403DC00003D1FFF753FF2C1C12E000F025F8A8420ED2301C291CFFF78FFF071E07D0211C2A1CFFF7CDFB301C211CFFF73FFF3C1C201CF8BD38B50023064C051C081C236014
:403E0000FDF71EF8431C03D12368002B00D02B6038BDC046F00100200B1F1A68101F002A04DA891804390B68D0180438704700001000000000000000017A5200027C0E01AF
:403E40001B0C0D001000000018000000B6F7FFFF140000000000000000000000415445300D0A00004F4B000041542B43574A41503F0D0A002B43574A41503A22457468655F
:403E800072696E6F2200000041542B43494653520D0A00002B43494653523A5354414D414300000041542B43495053544152543D22554450222C223232342E302E302E31B0
:403EC0003230222C383838380D0A0000434F4E4E454354004D41433D25730D0A00000000424D503138303A20543D256C6420503D256C646850610D0A00000000414D323337
:403F000030323A20543D25642052683D25640D0A00000000545832303A204469723D25642053706565643D25640D0A00545832303A204469723D4552522053706565643DBE
:403F40004552520D0A0000005241494E3A2025640D0A0000556261743A2025642E256420560D0A00454E440D0A00000041542B43495053454E443D25640D0A0041542B43D6
:403F80004950434C4F53450D0A00000041542B47534C503D25640D0A00000000414C524541445920434F4E4E45435445440000006E6F2069700000004552524F52000000F3
:403FC00030303A30303A30300000000080300F40800300400F40000400300F40484200008000000003000F401B300F4041310F406F320F4044330F400A400F4004410F40FF
:4040000002600F4080728138820F800282018301850488018A068E1095029E10A608AF01B004B102B210B408B504B603B701BE04BF51D418D804D904DB04DC03DD10DF0116
:4040400000040201030805110702080809600A400D801080120213241420180419A21B081C021D111F042040212022062302274929202A092D803120320133083504386828
:404080003A023D083F0140094110420843024640470149A04B0151805A085D0266406708695470947202732483408C20C0D7C28FC42FCA17CC47CECFD00DD20CD682D830AA
:4040C000E0400220060308DC0A220D030F0411201345140916D0170819D31B0C1C1420102240240C25D3267127042810298A2AAC2B14321F330F34E0353037C039A03A20A2
:404100003B083F4040244103460C47BE483449FF4AFF4BFF4EF04F44500C5401580459045A045B045C115D115F0166C06A406B0281018213832A84118513860689138A0C48
:404140008C408D108E20902092C0940C95029613970998809A209E10A208A304A4E0A8E0AC11AE0EB0E0B120B303B40FB510B610B70CBA20BE40BF40C004C604C9FFCA072A
:40418000CBFFCC40CD20CEF0CF05D008D804D904DA04DC11DD01DF01E040E1A8E240E3200102020103140526080409400A480E200F0210011114124014101640171019A1B1
:4041C0001A401D041F102001211822052610271529012C342D202F1031083502371639543A013D80430144104712490252405480554457095C025D805F1888A38B189154CA
:404200009401952096429A019B089D04A50CAA01AC01B148B520B702C07FC2AFC47FCA61CCE2CE1FD0E1D6F00A400E0863206F2083108E04C290D840DA80E680AA40AF2043
:40424000E820EE10100A110100100000F3180C000F08F000413C0042C3000004003CF341FF7F00008200000008040000040000030C6700181C00E300C01F2C200F001C40B5
:4042800000802822000000046204050001C00E0006FFFFFF62A0F0410C000000000002120404040411110001000000000000400200103010001010120000000000000000A9
:4042C0000000000000000000030405060708090A0B0C0E0F101112131415161718191B1C1D1E1F2021222325262728292A2B2E2F30313233343500001C270000FA2600006B
:40430000FA260000EE260000E2250000E2250000E2260000EE260000E2250000E2260000E2250000EE260000E6250000E6250000E6250000FC2800004300232D302B2000A2
:40434000686C4C006566674546470030313233343536373839414243444546003031323334353637383961626364656600000000F8B5C046F8BC08BC9E467047BD02000090
:40438000B90E0000F8B5C046F8BC08BC9E46704795020000A8430000C800002080000000B00000000000000000000000F80100200000E02EC05D00001800000000366E01D5
:4043C0000404040000000000000000000000000000000000000000000000000000000000000000003843000000000000000000000000000000000000000000000000000036
:40440000000000000000000000000000000000000000000000000000000000000000000000000000E400002000000000000000000000000000000000000000000000000078
:40444000000000000000000000000000000000000000000000000000000000000000000000000000000000000000000000000000000000000000000000000000000000003C
:4044800000000000000000000000000000000000000000000000000000000000000000000000000000000000000000000000000000000000000000000000000000000000FC
:4044C00000000000000000000000000000000000000000000000000000000000000000000000000000000000000000000000000000000000000000000000000000000000BC
:40450000000000000000000000000000000000000000000000000000000000000000000000000000000000000000000000000000000000000000000000000000000000007B
:0200000490303A
:02000000F4DA30
:0200000490402A
:200000000000000000000000000000000000000000000000000000000000000000000000E0
:0200000490501A
:0C000000000204C81193110104DE066D1B
:0200000490600A
:0100000001FE
:00000001FF